{
  "contractName": "SimpleToken",
  "abi": [
    {
      "inputs": [
        {
          "internalType": "uint256",
          "name": "_initialSupply",
          "type": "uint256"
        }
      ],
      "stateMutability": "nonpayable",
      "type": "constructor"
    },
    {
      "anonymous": false,
      "inputs": [
        {
          "indexed": true,
          "internalType": "address",
          "name": "owner",
          "type": "address"
        },
        {
          "indexed": true,
          "internalType": "address",
          "name": "spender",
          "type": "address"
        },
        {
          "indexed": false,
          "internalType": "uint256",
          "name": "value",
          "type": "uint256"
        }
      ],
      "name": "Approval",
      "type": "event"
    },
    {
      "anonymous": false,
      "inputs": [
        {
          "indexed": true,
          "internalType": "address",
          "name": "from",
          "type": "address"
        },
        {
          "indexed": true,
          "internalType": "address",
          "name": "to",
          "type": "address"
        },
        {
          "indexed": false,
          "internalType": "uint256",
          "name": "value",
          "type": "uint256"
        }
      ],
      "name": "Transfer",
      "type": "event"
    },
    {
      "inputs": [
        {
          "internalType": "address",
          "name": "",
          "type": "address"
        },
        {
          "internalType": "address",
          "name": "",
          "type": "address"
        }
      ],
      "name": "allowance",
      "outputs": [
        {
          "internalType": "uint256",
          "name": "",
          "type": "uint256"
        }
      ],
      "stateMutability": "view",
      "type": "function"
    },
    {
      "inputs": [
        {
          "internalType": "address",
          "name": "",
          "type": "address"
        }
      ],
      "name": "balanceOf",
      "outputs": [
        {
          "internalType": "uint256",
          "name": "",
          "type": "uint256"
        }
      ],
      "stateMutability": "view",
      "type": "function"
    },
    {
      "inputs": [],
      "name": "decimals",
      "outputs": [
        {
          "internalType": "uint8",
          "name": "",
          "type": "uint8"
        }
      ],
      "stateMutability": "view",
      "type": "function"
    },
    {
      "inputs": [],
      "name": "name",
      "outputs": [
        {
          "internalType": "string",
          "name": "",
          "type": "string"
        }
      ],
      "stateMutability": "view",
      "type": "function"
    },
    {
      "inputs": [],
      "name": "symbol",
      "outputs": [
        {
          "internalType": "string",
          "name": "",
          "type": "string"
        }
      ],
      "stateMutability": "view",
      "type": "function"
    },
    {
      "inputs": [],
      "name": "totalSupply",
      "outputs": [
        {
          "internalType": "uint256",
          "name": "",
          "type": "uint256"
        }
      ],
      "stateMutability": "view",
      "type": "function"
    },
    {
      "inputs": [
        {
          "internalType": "address",
          "name": "_to",
          "type": "address"
        },
        {
          "internalType": "uint256",
          "name": "_value",
          "type": "uint256"
        }
      ],
      "name": "transfer",
      "outputs": [
        {
          "internalType": "bool",
          "name": "success",
          "type": "bool"
        }
      ],
      "stateMutability": "nonpayable",
      "type": "function"
    },
    {
      "inputs": [
        {
          "internalType": "address",
          "name": "_spender",
          "type": "address"
        },
        {
          "internalType": "uint256",
          "name": "_value",
          "type": "uint256"
        }
      ],
      "name": "approve",
      "outputs": [
        {
          "internalType": "bool",
          "name": "success",
          "type": "bool"
        }
      ],
      "stateMutability": "nonpayable",
      "type": "function"
    },
    {
      "inputs": [
        {
          "internalType": "address",
          "name": "_from",
          "type": "address"
        },
        {
          "internalType": "address",
          "name": "_to",
          "type": "address"
        },
        {
          "internalType": "uint256",
          "name": "_value",
          "type": "uint256"
        }
      ],
      "name": "transferFrom",
      "outputs": [
        {
          "internalType": "bool",
          "name": "success",
          "type": "bool"
        }
      ],
      "stateMutability": "nonpayable",
      "type": "function"
    },
    {
      "inputs": [
        {
          "internalType": "address",
          "name": "_to",
          "type": "address"
        },
        {
          "internalType": "uint256",
          "name": "_value",
          "type": "uint256"
        }
      ],
      "name": "mint",
      "outputs": [],
      "stateMutability": "nonpayable",
      "type": "function"
    }
  ],
  "bytecode": "0x60c0604052600b60809081526a29b4b6b83632aa37b5b2b760a91b60a0526000906200002c9082620001ac565b5060408051808201909152600381526253544b60e81b6020820152600190620000569082620001ac565b506002805460ff191660121790553480156200007157600080fd5b5060405162000c9538038062000c95833981016040819052620000949162000278565b600254620000a79060ff16600a620003a7565b620000b39082620003bc565b600381905533600081815260046020908152604080832085905551938452919290917fddf252ad1be2c89b69c2b068fc378daa952ba7f163c4a11628f55a4df523b3ef910160405180910390a350620003d6565b634e487b7160e01b600052604160045260246000fd5b600181811c908216806200013257607f821691505b6020821081036200015357634e487b7160e01b600052602260045260246000fd5b50919050565b601f821115620001a757600081815260208120601f850160051c81016020861015620001825750805b601f850160051c820191505b81811015620001a3578281556001016200018e565b5050505b505050565b81516001600160401b03811115620001c857620001c862000107565b620001e081620001d984546200011d565b8462000159565b602080601f831160018114620002185760008415620001ff5750858301515b600019600386901b1c1916600185901b178555620001a3565b600085815260208120601f198616915b82811015620002495788860151825594840194600190910190840162000228565b5085821015620002685787850151600019600388901b60f8161c191681555b5050505050600190811b01905550565b6000602082840312156200028b57600080fd5b5051919050565b634e487b7160e01b600052601160045260246000fd5b600181815b80851115620002e9578160001904821115620002cd57620002cd62000292565b80851615620002db57918102915b93841c9390800290620002ad565b509250929050565b6000826200030257506001620003a1565b816200031157506000620003a1565b81600181146200032a5760028114620003355762000355565b6001915050620003a1565b60ff84111562000349576200034962000292565b50506001821b620003a1565b5060208310610133831016604e8410600b84101617156200037a575081810a620003a1565b620003868383620002a8565b80600019048211156200039d576200039d62000292565b0290505b92915050565b6000620003b58383620002f1565b9392505050565b8082028115828204841417620003a157620003a162000292565b6108af80620003e66000396000f3fe608060405234801561001057600080fd5b506004361061009e5760003560e01c806340c10f191161006657806340c10f191461012d57806370a082311461014257806395d89b4114610162578063a9059cbb1461016a578063dd62ed3e1461017d57600080fd5b806306fdde03146100a3578063095ea7b3146100c157806318160ddd146100e457806323b872dd146100fb578063313ce5671461010e575b600080fd5b6100ab6101a8565b6040516100b891906106de565b60405180910390f35b6100d46100cf366004610748565b610236565b60405190151581526020016100b8565b6100ed60035481565b6040519081526020016100b8565b6100d4610109366004610772565b6102a3565b60025461011b9060ff1681565b60405160ff90911681526020016100b8565b61014061013b366004610748565b6104b6565b005b6100ed6101503660046107ae565b60046020526000908152604090205481565b6100ab610595565b6100d4610178366004610748565b6105a2565b6100ed61018b3660046107d0565b600560209081526000928352604080842090915290825290205481565b600080546101b590610803565b80601f01602080910402602001604051908101604052809291908181526020018280546101e190610803565b801561022e5780601f106102035761010080835404028352916020019161022e565b820191906000526020600020905b81548152906001019060200180831161021157829003601f168201915b505050505081565b3360008181526005602090815260408083206001600160a01b038716808552925280832085905551919290917f8c5be1e5ebec7d5bd14f71427d1e84f3dd0314c0f7b2291e5b200ac8c7c3b925906102919086815260200190565b60405180910390a35060015b92915050565b60006001600160a01b0383166103005760405162461bcd60e51b815260206004820152601f60248201527f43616e6e6f74207472616e7366657220746f207a65726f20616464726573730060448201526064015b60405180910390fd5b6001600160a01b03841660009081526004602052604090205482111561035f5760405162461bcd60e51b8152602060048201526014602482015273496e73756666696369656e742062616c616e636560601b60448201526064016102f7565b6001600160a01b03841660009081526005602090815260408083203384529091529020548211156103cb5760405162461bcd60e51b8152602060048201526016602482015275496e73756666696369656e7420616c6c6f77616e636560501b60448201526064016102f7565b6001600160a01b038416600090815260046020526040812080548492906103f3908490610853565b90915550506001600160a01b03831660009081526004602052604081208054849290610420908490610866565b90915550506001600160a01b038416600090815260056020908152604080832033845290915281208054849290610458908490610853565b92505081905550826001600160a01b0316846001600160a01b03167fddf252ad1be2c89b69c2b068fc378daa952ba7f163c4a11628f55a4df523b3ef846040516104a491815260200190565b60405180910390a35060019392505050565b6001600160a01b03821661050c5760405162461bcd60e51b815260206004820152601b60248201527f43616e6e6f74206d696e7420746f207a65726f2061646472657373000000000060448201526064016102f7565b806003600082825461051e9190610866565b90915550506001600160a01b0382166000908152600460205260408120805483929061054b908490610866565b90915550506040518181526001600160a01b038316906000907fddf252ad1be2c89b69c2b068fc378daa952ba7f163c4a11628f55a4df523b3ef9060200160405180910390a35050565b600180546101b590610803565b60006001600160a01b0383166105fa5760405162461bcd60e51b815260206004820152601f60248201527f43616e6e6f74207472616e7366657220746f207a65726f20616464726573730060448201526064016102f7565b336000908152600460205260409020548211156106505760405162461bcd60e51b8152602060048201526014602482015273496e73756666696369656e742062616c616e636560601b60448201526064016102f7565b336000908152600460205260408120805484929061066f908490610853565b90915550506001600160a01b0383166000908152600460205260408120805484929061069c908490610866565b90915550506040518281526001600160a01b0384169033907fddf252ad1be2c89b69c2b068fc378daa952ba7f163c4a11628f55a4df523b3ef90602001610291565b600060208083528351808285015260005b8181101561070b578581018301518582016040015282016106ef565b506000604082860101526040601f19601f8301168501019250505092915050565b80356001600160a01b038116811461074357600080fd5b919050565b6000806040838503121561075b57600080fd5b6107648361072c565b946020939093013593505050565b60008060006060848603121561078757600080fd5b6107908461072c565b925061079e6020850161072c565b9150604084013590509250925092565b6000602082840312156107c057600080fd5b6107c98261072c565b9392505050565b600080604083850312156107e357600080fd5b6107ec8361072c565b91506107fa6020840161072c565b90509250929050565b600181811c9082168061081757607f821691505b60208210810361083757634e487b7160e01b600052602260045260246000fd5b50919050565b634e487b7160e01b600052601160045260246000fd5b8181038181111561029d5761029d61083d565b8082018082111561029d5761029d61083d56fea264697066735822122021c31c56dbbf255905fea2d8bdc8c4ba73361a23190ed6d296b41c897ac3d9e964736f6c63430008130033",
  "immutableReferences": {},
  "source": "// SPDX-License-Identifier: MIT\npragma solidity ^0.8.19;\n\ncontract SimpleToken {\n  string public name = \"SimpleToken\";\n  string public symbol = \"STK\";\n  uint8 public decimals = 18;\n  uint256 public totalSupply;\n\n  mapping(address => uint256) public balanceOf;\n    mapping(address => mapping(address => uint256)) public allowance;\n    \n    event Transfer(address indexed from, address indexed to, uint256 value);\n    event Approval(address indexed owner, address indexed spender, uint256 value);\n    \n    constructor(uint256 _initialSupply) {\n        totalSupply = _initialSupply * 10**uint256(decimals);\n        balanceOf[msg.sender] = totalSupply;\n        emit Transfer(address(0), msg.sender, totalSupply);\n    }\n    \n    function transfer(address _to, uint256 _value) public returns (bool success) {\n        require(_to != address(0), \"Cannot transfer to zero address\");\n        require(balanceOf[msg.sender] >= _value, \"Insufficient balance\");\n        \n        balanceOf[msg.sender] -= _value;\n        balanceOf[_to] += _value;\n        \n        emit Transfer(msg.sender, _to, _value);\n        return true;\n    }\n    \n    function approve(address _spender, uint256 _value) public returns (bool success) {\n        allowance[msg.sender][_spender] = _value;\n        emit Approval(msg.sender, _spender, _value);\n        return true;\n    }\n    \n    function transferFrom(address _from, address _to, uint256 _value) public returns (bool success) {\n        require(_to != address(0), \"Cannot transfer to zero address\");\n        require(balanceOf[_from] >= _value, \"Insufficient balance\");\n        require(allowance[_from][msg.sender] >= _value, \"Insufficient allowance\");\n        \n        balanceOf[_from] -= _value;\n        balanceOf[_to] += _value;\n        allowance[_from][msg.sender] -= _value;\n        \n        emit Transfer(_from, _to, _value);\n        return true;\n    }\n    \n    // Helper function to mint tokens (for testing purposes)\n    function mint(address _to, uint256 _value) public {\n        require(_to != address(0), \"Cannot mint to zero address\");\n        totalSupply += _value;\n        balanceOf[_to] += _value;\n        emit Transfer(address(0), _to, _value);\n    }\n}\n",
  "sourcePath": "/home/godsfavour/ALU/dApp_token/contracts/Migrations.sol",
  "compiler": {
    "name": "solc",
    "version": "0.8.19+commit.7dd6d404.Emscripten.clang"
  },
  "schemaVersion": "3.4.16",
  "updatedAt": "2025-07-11T01:07:53.540Z",
  "devdoc": {
    "kind": "dev",
    "methods": {},
    "version": 1
  },
  "userdoc": {
    "kind": "user",
    "methods": {},
    "version": 1
  },
  "db": {
    "callBytecode": {
      "id": "0x6acd2e08861fcf8e9b80975845d91a7842f01e92217237dce16ee734ea91d2b6"
    },
    "createBytecode": {
      "id": "0xeff09999e6b322e9fa4905c4bb3ea305e8a53a77bc8daaabdd8340bd9cb50b83"
    },
    "contract": {
      "id": "0x66c4c35a010ccff9f7da70efd0d63770394c38787cf86f9f2d2044388274a4d3"
    }
  }
}